:020000040800F2
:10000000B80B0020A1010008E32E0008CD2900084C
:10001000E12E00082D140008C13200080000000085
:100020000000000000000000000000008330000815
:1000300067140008000000008130000885300008C7
:10004000BB010008BB010008BB010008BB010008A0
:10005000BB010008BB010008BB010008BB01000890
:10006000BB010008BB010008BB01000831140008F7
:10007000BB010008BB010008BB010008BB01000870
:10008000BB010008BB010008DD120008BB0100082D
:10009000BB010008BB010008BB010008BB01000850
:1000A000BB010008BB010008BB010008BB01000840
:1000B000BB010008BB010008BB010008BB01000830
:1000C000BB010008BB010008BB010008BB01000820
:1000D000BB010008BB010008BB010008BB01000810
:1000E000BB010008BB010008BB01000800F002F8DA
:1000F00000F047F80AA090E8000C82448344AAF17B
:100100000107DA4501D100F03CF8AFF2090EBAE878
:100110000F0013F0010F18BFFB1A43F0010318473B
:1001200088420000A8420000103A24BF78C878C175
:10013000FAD8520724BF30C830C144BF04680C60ED
:10014000704700000023002400250026103A28BF35
:1001500078C1FBD8520728BF30C148BF0B60704739
:10016000662903F0B885002070471FB500F078FBC2
:1001700004000020002103F0E3FAE0601FBD10B589
:1001800010BD00F06DFC1146FFF7EFFF03F0C4F85F
:1001900000F08BFC03B4FFF7F2FF03BC00F0CEFCD1
:1001A0000948804709480047FEE7FEE7FEE7FEE70B
:1001B000FEE7FEE7FEE7FEE7FEE7FEE70448054947
:1001C000054A064B7047000001310008ED000008A9
:1001D000B8050020B80B0020B8070020B8070020A1
:1001E0000FB41CB50C0007AA009001D02044401E9B
:1001F000074B7B4469460190069800F0EEFA002C0C
:1002000003D06946002000F0FBFA1CBC5DF814FB2B
:10021000150600002DE9F05F894604464FF0000AFC
:10022000DFF824B1FB44C0F820A02046E1688847ED
:1002300000287DD0252806D0D4E901219047206AE6
:10024000401C2062F1E700255F462046E1688847B0
:100250002028064607DB312E05D2B81910F8200CED
:1002600008B10543F1E7A80701D525F00405C4F856
:100270001CA00027C4F818A02A2E09D0304603F08D
:1002800044F838B304EB8708303EC8F8186019E02A
:1002900059F8041B204604EB87029161E168884706
:1002A000012F064618D1E069002820DA25F0200544
:1002B0001DE0D8F8180000EB800006EB4000303855
:1002C000C8F818002046E1688847064603F01DF884
:1002D0000028EED1012F0AD02E2E08D12046E16849
:1002E00088477F1C0646022F45F02005C4DBA06925
:1002F000002803DA404245F00105A061E80701D07B
:1003000025F01005A6B1A6F14100192802D8203623
:1003100045F400654A463146204625604D46FFF7C4
:100320001FFF60B1012807D0ED1D25F0070000E098
:1003300007E000F1080978E705F1040975E73046A0
:100340007AE7206ABDE8F09FDA40000002F0FF0380
:1003500043EA032242EA024200F061BA4FF000028F
:1003600000B5134694469646203922BFA0E80C50AB
:10037000A0E80C50B1F12001BFF4F7AF090728BF86
:10038000A0E80C5048BF0CC05DF804EB890028BF02
:1003900040F8042B08BF704748BF20F8022B11F02B
:1003A000804F18BF00F8012B7047704770477047A7
:1003B00070472DE9FF4F0C461E464FF0FF378BB0BC
:1003C000D2E90001DDF860800A908A46C1F30A553F
:1003D00005B93D46002108464FF00000BAF1000F74
:1003E00000F4400005DA00EB80004FF4400101EA20
:1003F00050004FEA9059B9F1010F00DDB9460A9853
:1004000050EA4A000ED044F61050A5F2FF3545439D
:100410002F14B8F1000F1ED07542291E1EDDC9F140
:1004200000021CE0B8F1010F4FF0000001D03021B4
:1004300003E0F24305E02154401CB042FBDB3046B0
:100440000022002121540B99C1F80880C1E9002045
:100450000FB0BDE8F08FBD1B6D1CDEE74A4600DA29
:10046000694206A800F086FA06AB93E8070003ABE2
:1004700083E8070050460A9900F067FB8DE8070003
:10048000A0F500501F3800900398002D0ADD42F2BD
:100490001F014A460844002303A90390684600F060
:1004A000D0FD09E0A0F500504A461F38002303A9FB
:1004B0000390684600F0DAFD8DE807000004000CA8
:1004C00003D04FF0FF30410800E01046B8F1000FB4
:1004D00003D00022009215461EE0751E05D400F0E0
:1004E000C3F9303262556D1EF9D5B3460122084377
:1004F00002D000227F1C04E02078302801D10022A5
:100500007F1E002A099784D01DE0112D07DA00F024
:10051000ABF9303262556D1C50EA0102F5D1084347
:1005200002D00098C8B10EE00021681E05E0235CEF
:10053000625C63542254401E491C8142F7DBAB4687
:10054000A81B401E0990002004F80B000B98099A84
:10055000C0F80880C0E9002B7AE711264FF00008A8
:1005600057E72DE9F04F88460446D21D22F00701D7
:1005700091B0D1E90001CDE90A0102F0A2FE0246E4
:100580000B98C00F01D02D2007E02068810701D50E
:100590002B2002E0202101EAC000032A099001D0AB
:1005A000072A05DB03464146204600F0A3F90BE18C
:1005B0002078800601D5E06900E00620B8F1650FDB
:1005C000814606D0B8F1660F18D0B8F1670F70D128
:1005D00031E00020B9F1110F009001DB112301E09F
:1005E00009F101030AAA01A90CA8FFF7E2FEDDE95F
:1005F0000C70002609F10105834647E001204B46B7
:1006000000904FF000470AAA01A90CA8FFF7D1FEFD
:10061000DDE90DB00C995D46002610B909F1010025
:100620000D18B9EB050003D4C0F1FF3609F101053F
:10063000A5EB09002BE0B9F1010F01DA4FF0010938
:100640000020B9F1110F0090484601DD112300E0B0
:1006500003460AAA01A90CA8FFF7ABFEDDE90C705E
:100660004D4600268346207800070AD4AB4500DAC1
:100670005D4601A8012D04DD411911F8011C302946
:1006800007D04F4502DA17F1040F04DA0120824641
:100690000FE06D1EEEE7002F02DCED1B3E4403E091
:1006A000781CA84200DD7D1CB81B00F1010A4FF048
:1006B00000472078000703D4AA4501DB4FF0FF3A3A
:1006C0000021B7F1004F0DF143088DF8431024D0FD
:1006D00002202B23002F01DA7F422D230A21021E44
:1006E000A0F1010000DC5FB197FBF1FC97FBF1F298
:1006F00001FB1C7C17460CF1300C08F801CDEEE72D
:10070000A8F1010003702188090501D5452100E009
:100710006521A0F1010800F8011C09980FA9A1EBBF
:100720000807FF1D00B10120411901EBEA70A16922
:100730003844081A401EA0612078C00602D4204622
:10074000AFF30080099828B1D4E901219047206ACD
:10075000401C20622078C00622D52046AFF30080DE
:100760001EE0002E04DBB34502DD01A8805D00E041
:100770003020D4E901219047206A401C2062761C79
:10078000AAF101005FEA000A0AD100F069F8C06826
:100790000168405CD4E901219047206A401C206236
:1007A000281EA5F10105DCDC07E0D4E9012118F8D9
:1007B000010B9047206A401C2062381EA7F10107F8
:1007C000F3DC2046AFF30080032011B041E60000C7
:1007D00001694A1C02610878704700B58FB0CDE905
:1007E00001310021059105497944CDE903101146F5
:1007F0006846FFF70FFD0FB000BD0000E5FFFFFFEB
:100800000A6802F8010B0A607047D1E900239A4296
:1008100002D2531C0B60107070474FF00002042985
:10082000C0F0128010F0030C3FF49AADCCF1040C30
:10083000BCF1020F18BF00F8012BA8BF20F8022B53
:10084000A1EB0C01FFF78CBD5FEAC17C24BF00F86F
:10085000012B00F8012B48BF00F8012B7047000066
:10086000004870477405002030B5B0F10A024FEA25
:10087000900E71F100034EEA817EB0EB0E0061EB49
:1008800091014FEA101E4EEA017E10EB0E0041EB83
:1008900011114FEA102E4EEA016E10EB0E0041EBE3
:1008A00011214FEA104E4EEA014E10EB0E0041EBC3
:1008B0001141401841F100014FEAD00040EA417077
:1008C0004FEAD10110EB80054FEA810444EA9074AD
:1008D00044EB01046D1944EB0404521BA3414FF097
:1008E000000348BF0A3200D530BD401C41F1000171
:1008F00030BD00002DE9F0411F4604460326016883
:10090000072A01F4006004DB08B116A505E016A56E
:1009100003E008B115A500E015A521F01000206046
:10092000A069C01EA0610FB1401EA0612046AFF3B8
:1009300000804FB1D4E9012138469047206A401C1D
:100940002062C01C206206E0206AFAE7D4E9012197
:1009500015F8010B9047761EF8D22046AFF30080C1
:10096000BDE8F0814E414E006E616E00494E46007A
:10097000696E66002DE9F047814616468AB0354813
:1009800078440DC88DE80D0032487844801C03ACD3
:100990000DC884E80D0041F69B300844372190FBD8
:1009A000F1F290FBF1F5A5F1800501FB12041B3C6F
:1009B00002D56442012000E00020DFF898A08046C4
:1009C0000027FA44AAF1BE0A0EE0E0070AD0324638
:1009D000684607EB470101230AEB810100F046FB63
:1009E0008DE8070064107F1C002CEED1194F7F4466
:1009F000AE3F19E0E80715D007EB04100DF1180A17
:100A000090E80E008AE80E00C068F04201D1981903
:100A100008903246012306A903A800F027FB03AB88
:100A200083E807006D10641C002DE3D14FF0010333
:100A300032466946B8F1000F03A802D000F001FB6E
:100A400001E000F013FBC9E90001C9F808200AB071
:100A5000BDE8F0870C3A00000048704754050020BC
:100A60007546FFF7F9FFAE4605006946534620F08C
:100A70000700854618B020B5FFF7A0FBBDE8204071
:100A80004FF000064FF000074FF000084FF0000B4A
:100A900021F00701AC46ACE8C009ACE8C009ACE8FD
:100AA000C009ACE8C0098D46704710B50446AFF3E5
:100AB00000802046BDE81040FFF76CBB4FF0013CC2
:100AC00050F8042B51F8043B9A4221D1A2EB0C03BD
:100AD000934313EACC1317D150F8042B51F8043B7D
:100AE0009A4215D1A2EB0C03934313EACC130BD11A
:100AF00050F8042B51F8043B9A4209D1A2EB0C03A5
:100B0000934313EACC13DBD04FF00000704700BFD3
:100B1000D01A01BAB1FA81F101F0180122FA01F0FC
:100B2000CB40C1F12001DBB2C0B2C01A2CFA01F3F4
:100B3000D11A914311EAC311E6D170470149182037
:100B4000ABBEFEE72600020070475FEA400C08BF1C
:100B500091F0000F4FEA8C234FEAC12243EA515132
:100B60004FEA1C5018BF00F5F0404FEA300018BFA4
:100B700041F000415FEA6C5C00F02980BCF1FF3F6E
:100B800008BF40F080407047130C06BF12044FF0BE
:100B9000100C4FF0000C130E04BF12020CF1080CE5
:100BA000130F04BF12010CF1040C930F04BF920049
:100BB0000CF1020CD30F04BF52000CF1010C1146D2
:100BC0004FF00002A0F11F00A0EB0C00704711F0E5
:100BD000004F08BF704731F000413FF4D5AF0B0C18
:100BE00006BF09044FF0100C4FF0000C0B0E04BFB1
:100BF00009020CF1080C0B0F04BF09010CF1040CE5
:100C00008B0F04BF89000CF1020CCB0F04BF49000D
:100C10000CF1010CCCF12003A0EB0C0022FA03F341
:100C200002FA0CF241EA030100F10100704720F0E2
:100C30007F4C80EA030023F07F47ACEB070303F50A
:100C40007C5300F0004003F1FF032DE980494FEA97
:100C5000154B09B44FEA144325EA0B4E24EA034826
:100C60000FF2042606EB132749083E785FEA3202AA
:100C700003FB0667C7F5000707FB06F64FEA543784
:100C80004FEAD64606F1020607FB066CCCF1005C83
:100C90004FEA1C472CEA074C07FB06F40CFB06F551
:100CA00004EB15464FEA961634BF00204FF0004083
:100CB0004FEAD13706FB07FC4FEA1C4C0CFB0BF745
:100CC000D21B03FB0CF761EB07010CFB0EF7B0EB3B
:100CD000074072EB17420CFB08F734BFA2EB074248
:100CE000B2EB074261EB17414FEA0C444FEA910720
:100CF00006FB07FC4FEA1C4C0CFB0BF7B0EBC740A4
:100D000072EB573203FB0CF734BFA2EBC742B2EBD6
:100D1000C74261EB57310CFB0EF7B0EBC70072EB2B
:100D200057720CFB08F734BFA2EBC702B2EBC70245
:100D300061EB5771039F4FEA816141EA921104EB25
:100D4000CC044FEAD1374FEA826206FB07FC42EA45
:100D500090124FEA80604FEA1C4C0CFB0BF7D21B41
:100D600003FB0CF761EB07010CFB0EF7B0EB074040
:100D700072EB17420CFB08F734BFA2EB0742B2EB51
:100D8000074261EB17414FEA8C554FEA910704EB9C
:100D90009C2406FB07FC4FEA1C4C0CFB0BF7B0EB4A
:100DA000C74072EB573203FB0CF734BFA2EBC742CC
:100DB000B2EBC74261EB57310CFB0EF7B0EBC7004B
:100DC00072EB57720CFB08F734BFA2EBC702B2EB11
:100DD000C70261EB577115EB4C254FEA816141EA7F
:100DE00092114FEA82624FEAD13742EA901206FB33
:100DF00007FC44F100044FEA80604FEA1C4C0CFBF6
:100E00000BF7D21B03FB0CF761EB07010CFB0EF792
:100E1000B0EB074072EB17420CFB08F734BFA2EBB4
:100E20000742B2EB074261EB174115EB1C154FEA85
:100E3000813141EA92414FEA823242EA90424FEADE
:100E400080304FEA0C7644F1000448EA03434EEA4E
:100E50000B484FF0000EB2EB080C71EB030724BFF8
:100E6000624639464EEB0E0E4FF0000B0018524111
:100E700049414BEB0B0BB2EB080C71EB03077BF119
:100E8000000B24BF624639464EEB0E0E4FF0000BAE
:100E90000018524149414BEB0B0BB2EB080C71EBC4
:100EA00003077BF1000B24BF624639464EEB0E0E62
:100EB00051EA020718BF46F0010616EB0E7655F10F
:100EC000000254F1000103D5BDE88901BDE80088A6
:100ED000BDE88901BDE80048B619524141EB010166
:100EE000A3F10103704780807F7E7D7C7B7A7978D7
:100EF000777676757473727171706F6E6E6D6C6CDF
:100F00006B6A6A6968686766666564646363626180
:100F10006160605F5F5E5E5D5D5C5C5B5B5A5A5901
:100F2000595858575756565555555454535352526D
:100F30005251515050504F4F4F4E4E4D4D4D4C4CC5
:100F40004C4B4B4B4A4A4A4949494848484747470E
:100F5000474646464545454444444443434343424B
:100F6000424242414141002B9C4630D477002BD075
:100F70001CB54FEA370703B44FF010004FF01001D3
:100F8000BAF1000F06D0BCF1000FDCBF40F0080042
:100F900040F008014FF000000FBCBDE810400BF11D
:100FA000010BBBF1010F08BF5FEA170722BF12F167
:100FB000010211F101014FF0004143F1000300F083
:100FC000004043EA00007047F9D35708D0E746EAEB
:100FD000064613F1400F4FEA16461FDD13F1200FAE
:100FE000DFBF16430A46002120335B42BED0C3F167
:100FF000200746EA064602FA07F74FEA164646EA8F
:101000000706C3F1200722FA03F201FA07F721FAD3
:1010100003F14FF0000342EA0702A7E746EA02069F
:1010200046EA06464FEA164646EA0106BCBF46EACD
:101030000646360C4FF000034FF000024FF000015F
:1010400094E72DE9804C9A46934670B491E83800B5
:1010500007C831EA400C48BF34EA430C03D5FFF718
:10106000E6FDFFF780FFF0BCBDE8008C2DE9804C69
:101070009A46934670B491E8380007C810F0804F44
:1010800008BF13F0804F03D100F005F8FFF76BFFA6
:10109000F0BCBDE8008C20F07F4780EA030023F01D
:1010A0007F4C07EB0C03A3F57C5300F00040A3F149
:1010B000FE0392F0000F00F0B38095F0000F00F0F7
:1010C00077802DE901494FEA11404FEA144621EAA1
:1010D000004800FB06FC24EA064708FB06F607FB6F
:1010E00008F800FB07F718EB06484CEB164C4FEAE4
:1010F000124B18EB07484FEA15464CEB174022EA13
:101100000B4E0BFB06FC25EA06470EFB06F607FB1B
:101110000EFE0BFB07F71EEB064E4CEB164C4FF08A
:1011200000061EEB074E4CEB174B18EB0B0840F17B
:10113000000018EB0E0B58EB000840F100008F1A6E
:101140004FF000013CBFC943661B14BFB5EB040C54
:1011500000213CBFC943F61B4FEA17444EEA8E0EEE
:1011600027EA04454FEA1C4704FB07622CEA074CB8
:1011700005FB07F70CFB05F604FB0CFC16EB07461A
:1011800042EB174216EB0C4642EB1C421BEB0606E9
:1011900058EB0202414146EA9E0601D5BDE80189AD
:1011A000B619524141EB0101A3F10103BDE80189E8
:1011B0004FEA14454FEA114724EA054621EA074C55
:1011C00005FB07F406FB07F70CFB06F105FB0CFC1F
:1011D00011EB074144EB17444FEA124711EB0C4166
:1011E00044EB1C4422EA074C05FB07F206FB07F719
:1011F0000CFB06F605FB0CFC16EB074642EB174210
:1012000016EB0C4642EB1C456A1854F1000148BF2E
:101210007047B619524141EB0101A3F10103704738
:1012200095F0000F37D04FEA11424FEA144721EAF8
:10123000024624EA074C02FB07F106FB07F70CFB0A
:1012400006F402FB0CFC14EB074441EB17414FEA98
:10125000154714EB0C4441EB1C4125EA074C02FBFB
:1012600007F506FB07F70CFB06F602FB0CFC16EB7A
:10127000074645EB174516EB0C4645EB1C42121989
:1012800051F1000148BF7047B619524141EB0101CD
:10129000A3F1010370474FEA14454FEA114724EACE
:1012A000054621EA074C05FB07F106FB07F70CFB97
:1012B00006F24FF0000605FB0CFC12EB074241EB77
:1012C000174112EB0C4251EB1C4148BF704792187A
:1012D00041EB0101A3F1010370470000014800F058
:1012E00074B900004404002070B5044600688168A9
:1012F000C943C90717D1816821F00101816000F05D
:1013000051FD05460AE000BF00F04CFD401B0228DD
:1013100004D920688068C043C00706D02068806870
:10132000C043C007F0D0002070BDA06A40F010009C
:10133000A062E06A40F00100E062012070BD10B5DB
:101340000146406A826A12F0500F05D0006A026BB3
:10135000BDE8104008461047816A41F4007181627F
:1013600001688968C1F3424107290CD1017B51B959
:10137000816A21F480718162816AC90403D4816A1F
:1013800041F00101816200F01DF910BD10B5406A05
:10139000816A41F040018162C16A41F00401C16289
:1013A00000F012F910BD10B5406A00F00CF910BD44
:1013B000F8B500260446009600688168C943C9074D
:1013C0002DD0816841F001018160164816490068FE
:1013D000B0FBF1F000E0401E00900028FBD100F0CF
:1013E000E1FC054616E000BF00F0DCFC401B0228D3
:1013F00010D920688068C043C0070BD0A06A40F0B5
:101400001000A062E06A40F00100E06284F824600D
:101410000120F8BD20688068C043C007E4D10020E7
:10142000F8BD00004000002040420F00FEE7000031
:10143000014800F09FBA00007404002030B590F815
:1014400040500124AC40C56B6C6004686360436825
:10145000102B036803D099600068C26030BD9A60A9
:101460000068C16030BD704772B6FEE7704700008B
:1014700030B590F82420012A1ED0012280F82420C3
:101480000A7A012A0268536818D023F04003536097
:10149000D1E900231A4303685C680A4D2C402243BB
:1014A0005A600368CA685A62026809699162002139
:1014B00080F82410084630BD022030BD43F04003C0
:1014C000E5E70000E0FD3FFFF8B50024009490F848
:1014D00024202546012A12D0012280F824204A68BF
:1014E0001F23072A0DD20668776B521E02EB820279
:1014F00093409F430B6893401F43776319E002209A
:10150000F8BD06680D2A0AD2376BD21F02EB8202A1
:1015100093409F430B6893401F43376309E0F76A8A
:101520000D3A02EB820293409F430B6893401F43A6
:10153000F7620A68072306680A2A0AD3F7680A3A94
:1015400002EB420293409F438B6893401F43F76036
:1015500008E0376902EB420293409F438B68934057
:101560001F4337610A68102A01D0112A20D1124B7B
:1015700002689A4217D193681B0219D4936843F406
:10158000000393600968102912D10C490C4A0968BC
:10159000B1FBF2F101EB8101490000E0491E00912D
:1015A0000029FBD104E0816A41F02001816201241D
:1015B00080F824502046F8BD00240140400000205F
:1015C00040420F0070477047704770B5044600688E
:1015D00006684568A90625D5B10723D5A16AC906BD
:1015E00003D4A16A41F40071A1628168C1F3424150
:1015F000072910D1217B71B9416821F02001416098
:10160000A06A20F48070A062A06AC00403D4A06A1B
:1016100040F00100A0622046FFF7D4FF21686FF080
:101620001200086028062ED570072CD5A06AC006C7
:1016300003D4A06A40F40050A06220688168C1F31E
:101640000231072909D04168490515D48168C1F3E1
:101650004241072910D1217B71B9416821F08001F5
:101660004160A06A20F48050A062A06AC00503D443
:10167000A06A40F00100A0622046FFF7F7FE216853
:101680006FF00C00086068060CD5F0070AD0A06A5D
:1016900040F48030A062204600F094F821686FF09A
:1016A0000100086070BD00002DE9F0414FF0000717
:1016B00004003D467ED0A06A002628B9E66284F880
:1016C0002460204600F080F82046FFF70DFEA16A56
:1016D000C90600D420B1A06A40F01000A06269E001
:1016E000A16A21F4885141F00201A1626268E169B6
:1016F000237B0A4347EA43010A43A1684FF48077FA
:10170000B94209D0012907D05FF0000194F814C054
:10171000BCF1010F02D00AE03946F7E7F3B1A36A42
:1017200043F02003A362E36A43F00103E36223680A
:10173000D3F804C02CF4694C4CEA010CC3F804C083
:1017400021688B68DFF870C003EA0C0313438B60D9
:10175000A168B9420BD0012909D00CE0DFF85CC0C8
:10176000A3690CEB43330B4343F40061DFE7218AA9
:101770000D05A5F580152168CB6A23F470032B4372
:10178000CB62216889680E4B1940914208D1E6620C
:10179000A16A21F0020141F00101A162BDE8F081DE
:1017A000A06A20F0020040F01000A062E06A40F061
:1017B0000100E0620120F1E7FDF7E1FF00E0FFFF3B
:1017C000FE0E1FFF7047000070B586B0002605466C
:1017D000009601960296039600681E49884236D10B
:1017E0001D49886940F400708861886900F40070C0
:1017F0000490886940F0040088618869694600F0B7
:1018000004000490032000900190144800F0D4F9E3
:10181000144C1348C4E900068020C4E9026040006B
:101820002061800060612020A0610002E06120460C
:1018300000F04AF908B1FFF717FE2C6200220121DF
:101840001220656200F0A4FC122000F093FC06B0A8
:1018500070BD00000024014000100240000801405B
:1018600008000240740400202DE9F0478946044630
:101870003B4900683B4F0E1D9046884201D0B8425C
:1018800007D1306810F4702F03D001252846BDE839
:10189000F08794F8240001280CD0012084F824005B
:1018A0002046FFF785FD05004FF0000004D084F8C6
:1018B0002400EBE70220EAE7A16A40F601629143C7
:1018C00041F48071A1622168B94218D1326812F4E2
:1018D000702F14D0A16A41F48011A16231684905CA
:1018E00005D5A16A21F4005141F48051A162A16A99
:1018F000C9040AD5E16A21F00601E16206E0A26AA4
:1019000022F48012A2624968E9E7E06284F82400C8
:10191000216A15488862216A1448C862216A1448FD
:10192000086321686FF0020008602068816841F454
:1019300080718160216843464A464C31206A00F03C
:10194000F1F820688168C1F342410729816803D01A
:1019500041F48011816099E741F4A001FAE70000A9
:1019600000240140002801403F130008A71300088D
:101970008D1300082DE9F05FC16B0C6801680B68DE
:10198000D0F840C0042202FA0CF2494DDFF824A13D
:10199000494E4A4FDFF828B1DFF828E122422CD027
:1019A0005A072AD50A68920603D40A6822F004026C
:1019B0000A600168A94201D1042219E0514501D110
:1019C000402215E0B14202D14FF4806210E0B942EA
:1019D00002D14FF480420BE0594502D14FF48022EE
:1019E00006E0714502D14FF4800201E04FF08062C1
:1019F0002F4908394A60C16A3BE04FF0020808FAF3
:101A00000CF818EA040F4FF000094FF0010235D02E
:101A10005FEA837832D50B689B0605D40B6823F008
:101A20000A030B6080F821200168A94201D102223B
:101A300019E0514501D1202215E0B14202D14FF405
:101A4000007210E0B94202D14FF400520BE0594548
:101A500002D14FF4003206E0714502D14FF400127A
:101A600001E04FF00072124908394A6080F8209076
:101A7000816A00291AD0BDE8F05F0847082505FAF9
:101A80000CF5254212D01B0710D50B6823F00E036E
:101A90000B6090F84010C36B02FA01F15960826349
:101AA00080F8212080F82090016BE2E7BDE8F09FEC
:101AB000080002401C000240300002404400024086
:101AC000580002406C00024030B528B308C81349E2
:101AD00014221944B1FBF2F18900C16310498163FA
:101AE000022141771A6843F6F0718A43D0E9001465
:101AF0002143D0E902452C43214304692143446931
:101B0000214384692143114319600021416301226B
:101B100042770177084630BD012030BDF8FFFDBF98
:101B20000000024070B5044690F82000002501280E
:101B30000CD0012084F8200094F821600020012EB0
:101B400006D084F820000225284670BD022070BD12
:101B5000022684F82160A0632068066826F001064A
:101B600006602046FFF76AFCE06A002820680168EA
:101B700002D041F00E0106E021F00401016020686E
:101B8000016841F00A0101602068016841F001012B
:101B90000160D9E770B5044600F004F90546601C01
:101BA00002D004480078044400F0FCF8401BA04236
:101BB000FAD370BD340000202DE9F84FDFF8B8915A
:101BC0000024A9F1040B23460F2709F1040AABF105
:101BD000040EC9E00125A5402A40AA427DD1674EE6
:101BE000D1F804C0ACEB0608B44532D014DCBCF12B
:101BF000030F3AD009DCBCF1000F2AD0BCF1010F71
:101C00001CD0BCF1020F31D11DE0BCF1110F17D077
:101C1000BCF1120F2AD119E0B8F5881F19D006DCE3
:101C2000B8F5803F15D0B8F5801F1FD111E0B8F589
:101C3000001F0ED0B8F5041F18D10AE0CB6815E0DC
:101C4000CB681B1D12E0CB6808330FE0CB680C3368
:101C50000CE08B682BB1012B4FF0080303D04561DA
:101C600004E0042302E0056100E00023FF2A01D81C
:101C7000064601E000F104064FEA840501D9A5F10A
:101C80002005D6F8008007FA05FC28EA0C0803FABC
:101C900005F548EA0508C6F800804D68ED0062D5F4
:101CA000374DAE6946F00106AE61AD6924F003061A
:101CB00005F001050095334D06EB050CDCF80850E6
:101CC000A607360F07FA06F825EA0805DFF8B880F8
:101CD000404503D14FF0000817E044E0DFF8AC8046
:101CE000404502D14FF001080FE0DFF8A4804045E5
:101CF00002D14FF0020808E0DFF89880404502D199
:101D00004FF0030801E04FF0040808FA06F848EA2B
:101D10000508CCF808804D68D9F80060ED024D4602
:101D200001D5164300E096432E604D68DAF8006056
:101D3000AD02554601D5164300E096432E604D682E
:101D4000DBF80060AD035D4601D5164300E0964325
:101D50002E604D68DEF80060ED03754601D5164330
:101D600000E096432E60641C0D682A46E5407FF42F
:101D700031AFBDE8F88F00000804014000001110E9
:101D8000001002400000014000080140000C01402A
:101D900000100140001401400AB1016170470904BC
:101DA000FBE7000001488068704700003400002015
:101DB00070B5040025D094F83D00002520B984F8C2
:101DC0003C50204600F050F9242084F83D00206863
:101DD000016821F0010101602068016841F40041BF
:101DE00001602068016821F40041016000F00EFBF1
:101DF0004D4A6168914201D84C4900E04C49884203
:101E000001D2012070BD4B492368B0FBF1F15E683F
:101E100026F03F060E435E606368934206D94FF496
:101E2000967359434FF47A73B1FBF3F12368491C5D
:101E30001E6A26F03F06314319626168914210D84C
:101E40004900401EB0FBF1F2521CC2F30B02042AFF
:101E500001D2042022E0B0FBF1F0401CC0F30B00E3
:101E60001CE0A268F2B301EBC10303EB0116431EB1
:101E7000B3FBF6F35B1C43F480431B0549D092B3DC
:101E800001EBC10202EB0111401EB0FBF1F0401C5E
:101E9000C0F30B0040F4804040F400402168CA6960
:101EA0004CF6FF739A431043C861D4E9071001430D
:101EB0002068026822F0C00211430160D4E90301E6
:101EC00001432068826848F2FF339A4311438160DE
:101ED000D4E9050108432168CA6822F0FF021043D3
:101EE000C86001E00EE016E02068016841F00101E1
:101EF00001602564202084F83D00256384F83E506D
:101F0000002070BD01EB4106431EB3FBF6F35B1CE2
:101F1000B3E70120C2E701EB4101401EB0FBF1F045
:101F2000401CC0F30B00B7E7A086010080841E00B0
:101F300000093D0040420F002DE9FF4F83B09A4653
:101F4000DDE9119793460446DDF84080FFF72AFF4C
:101F5000054694F83D0020287FD1192301224049ED
:101F60002046009500F0CAFD002876D194F83C0088
:101F7000012872D0012084F83C0020680168C9075C
:101F800003D1016841F0010101602068016821F47A
:101F900000610160212084F83D00402084F83E006B
:101FA00000262664C4F82480A4F82A90608D208539
:101FB0002C48E062CDE9007553465A462046049904
:101FC00000F01CFD70B930E02A463946204600F08A
:101FD0003BFE58B1206C042804D12068016841F40C
:101FE00000710160012007B0BDE8F08F606A2168D0
:101FF00000780861606A401C6062218D491E89B2C8
:102000002185628D521E628522685369DB435B071E
:102010000BD469B100781061606A401C6062208D49
:10202000401E2085608D401E6085208D0028CBD10C
:102030002A463946204600F035FD0028CAD154F81A
:102040003D0B016841F400710160202004F81E0975
:10205000E67766770020C6E7FFE70220C3E70000C7
:10206000020010000000FFFF10B586B000210091B3
:1020700001910291039100680F4988421AD10F4CD7
:10208000A06940F00800A061A069694600F008005E
:102090000490C02000901220019003200390084873
:1020A000FFF78AFDE06940F40010E061E06900F4A8
:1020B0000010049006B010BD005400400010024013
:1020C000000C014002488168027811448160704729
:1020D00034000020074810B5016841F0100101608C
:1020E000032000F075F80F2000F006F800F024F847
:1020F000002010BD0020024070B50D4D04464FF485
:102100007A712878B1FBF0F00A490968B1FBF0F068
:1021100000F042FB48B9102C07D200222146501E85
:1021200000F036F800206C6070BD012070BD00002A
:1021300034000020400000200C4808B5816941F0BF
:1021400001018161816901F001010091C16941F0E2
:102150008051C161C06900F080500090044841681E
:1021600021F0E06141F00071416008BD00100240C3
:1021700000000140002809DB00F01F02012191400E
:102180004009800000F1E020C0F800117047000015
:10219000F0B40E4B1B680C46C3F30223C3F10705D2
:1021A000042D00D90425191D072901D2002300E0C0
:1021B000DB1E012606FA05F1491E214099409E408A
:1021C000761E16403143F0BC01F08FB80CED00E0F4
:1021D000064900F0070208684FF6FF03184040EA7E
:1021E0000220034A10430860704700000CED00E035
:1021F0000000FA052DE9F84305460078354CC00784
:1022000054D0E0690026C00008D4E06940F0805056
:10221000E061E069012600F0805000902E480168DE
:10222000C90512D40168804641F480710160FFF74E
:10223000B9FD074605E000BFFFF7B4FDC01B6428E9
:1022400023D8D8F80000C005F6D5206A10F44070F5
:1022500021D0A98801F4407181421CD0206A1F4915
:10226000012220F440700A6000220A602062C00748
:1022700011D0FFF797FD074641F2883808E000BF0C
:10228000FFF790FDC11B414502D90320BDE8F8834B
:10229000206A8007F4D5206A696820F440700843FA
:1022A00020621EB1E06920F08050E061287880074C
:1022B00005D56068A96820F440400843606028782C
:1022C000C00605D56068E96820F4800008436060B6
:1022D0000020DBE700100240007000404004424252
:1022E0002DE9F0470F46050061D0434E306800F0FD
:1022F0000700B84209D2306820F007003843306048
:10230000306800F00700B84251D128683B4C810783
:1023100012D5400703D5606840F4E060606028781B
:10232000000703D5606840F4605060606068A96889
:1023300020F0F000084360602878C00728D0686863
:10234000012810D02168022810D0890700292EDA30
:10235000616821F0030101436160FFF723FD8046BE
:1023600041F288390DE021688903EFE78901EDE743
:10237000FFF718FDA0EB0801494502D90320BDE88D
:10238000F0876068696800F00C00B0EB810FEFD156
:10239000306800F00700B8420BD9306820F0070021
:1023A00038433060306800F00700B84201D00120A7
:1023B000E5E72878400705D56068E96820F4E06023
:1023C000084360602878000706D56068296920F412
:1023D000605040EAC100606000F028F86168084A77
:1023E000C1F30311515CC840064908600648006803
:1023F000FFF782FE0020C2E70020024000100240EA
:10240000EA42000840000020380000200448054946
:1024100000684968044AC1F30221515CC840704712
:102420004000002000100240FA4200080E4A5168A5
:102430000E4801F00C03042B11D0082B0FD10C48CF
:10244000C1F38343C903C05C0AD55168084AC1F38C
:102450004041921E515C054A5043B0FBF1F0704779
:1024600004494843704700000010024000127A00FF
:10247000DA42000800093D002DE9F84F040070D051
:102480002078C04DC00749D06868C0F3810001289A
:1024900007D06868C0F38100022809D16868C003CA
:1024A00006D52868800339D560680028E7D035E074
:1024B0006068B0F5803F0BD010B1B0F5A02F11D0FF
:1024C000286820F480302860286820F4802002E00A
:1024D000286840F480302860606890B1FFF762FCA3
:1024E00006460AE0286840F480202860F0E700BF34
:1024F000FFF758FC801B642873D828688003F7D541
:102500000CE0FFF74FFC064605E000BFFFF74AFC72
:10251000801B6428F0D828688003F7D420789A4E6E
:1025200080074FF001094FF0000839D5686810F0B6
:102530000C0F07D06868C0F38100022809D16868D1
:10254000C00306D42868800714D52069012808D163
:1025500010E02069B0B1C6F80090FFF723FC0746F1
:1025600005E00AE1FFF71EFCC01B0228C4D828685A
:102570008007F7D52868616920F0F80040EAC100BB
:1025800028600DE0C6F80080FFF70CFC074604E069
:10259000FFF708FCC01B022823D828688007F7D45F
:1025A000207800072CD57948A169D9B1C0F80090EE
:1025B000FFF7F8FB074604E0FFF7F4FBC01B022817
:1025C0000FD8686A8007F7D571484FF4FA51006850
:1025D000B0FBF1F0009000BF0098411E0091FAD2CC
:1025E0000EE080E0C0F80080FFF7DCFB074604E067
:1025F000FFF7D8FBC01B022875D8686A8007F7D49C
:102600002078400760D5E8690027C00008D4E86951
:1026100040F08050E861E869012700F080500090A8
:102620005C480168C90513D40168834641F4807190
:102630000160FFF7B7FB824606E000BFFFF7B2FB81
:10264000A0EB0A0064284ED8DBF80000C005F5D5E1
:10265000E06801280AD008B1052813D0286A20F0C4
:1026600001002862286A20F0040002E0286A40F095
:1026700001002862E06841F2883B98B1FFF792FBC5
:1026800082460BE0286A40F004002862EEE700BFB3
:10269000FFF788FBA0EB0A0159455AD8286A800742
:1026A000F6D50CE0FFF77EFB824605E0FFF77AFBEC
:1026B000A0EB0A0159454CD8286A8007F6D41FB10F
:1026C000E86920F08050E861E06988B36968C1F387
:1026D0008101022944D00228C6F8608004D0FFF7A7
:1026E00061FB044638E034E0FFF75CFB074604E09A
:1026F000FFF758FBC01B02282BD828688001F7D4AD
:10270000206AB0F5803F05D16868A16820F40030E8
:1027100008436860D4E908010843696821F474112A
:1027200008436860C6F86090FFF73CFB044606E08B
:1027300025E000BFFFF736FB001B022809D82868F8
:102740008001F7D51BE000BFFFF72CFB001B022820
:1027500002D90320BDE8F88F28688001F4D40EE088
:102760000128F7D06868226A00F48031914204D1D0
:10277000616A00F47010884201D00120EAE700206D
:10278000E8E700000010024000004242800442429C
:10279000400000200070004010B5401EB0F1807F66
:1027A00001D3012010BD4FF0E02460610F216017BC
:1027B00000F09BFD0020A06107202061002010BDDB
:1027C00010B590F83C20012A22D0012280F83C204C
:1027D000CA688C6822F4407222434C6822F48062FA
:1027E00022430C6822F4006222430C6922F48052D6
:1027F00022434C6922F400522243C969002322F487
:1028000080420A4301684A6480F83C30002010BDD1
:10281000022010BD70B590F83C20012A26D001247A
:1028200080F83C40022280F83D2003685A689D6889
:1028300022F070060A6832435A600D4B02689A42D1
:1028400008D0B2F1804F05D00A4B9A4202D00A4B11
:102850009A4204D1496825F080031943916080F8B9
:102860003D40002180F83C10084670BD022070BD3C
:10287000002C0140000400400008004070B50446F0
:1028800090F83C0000260D4601280FD0012084F866
:102890003C006AB1042A1DD0082A2FD00C2A3FD050
:1028A0000126002084F83C00304670BD022070BD37
:1028B000206800F063FC2068816941F008018161B3
:1028C0002068816921F004018161206881692A6999
:1028D000114311E0206800F079FC2068816941F41F
:1028E000006181612068816921F4806181612068D3
:1028F00081692A6941EA02218161D2E7206800F0FA
:1029000091FC2068C16941F00801C1612068C1697A
:1029100021F00401C1612068C1692A69114311E0F5
:10292000206800F0ABFC2068C16941F40061C1611E
:102930002068C16921F48061C1612068C1692A6988
:1029400041EA0221C161ACE710B5040003D094F85C
:102950003D0010B107E0012010BD002084F83C00CC
:10296000204600F01FF8022084F83D00211D206859
:1029700000F0C8FB012084F8460084F83E0084F88B
:102980003F0084F8400084F8410084F8420084F855
:10299000430084F8440084F8450084F83D0000209A
:1029A00010BD000008B500680649884208D10648F5
:1029B000816941F400618161806900F400600090E8
:1029C00008BD0000002C014000100240FEE7016835
:1029D0004A69D24352050FD46FF480624A610021E4
:1029E00040F8301F202242738173026942F00402D2
:1029F0000261017301207047002070472DE9F84300
:102A0000044600680D46DDE90897016898461646B9
:102A100041F4807101604B4600224FF001112046C5
:102A2000009700F06BF848B120680068C00502D537
:102A30004FF4007020640320BDE8F883216805F09E
:102A4000FE0008613B464A461549204600F09EF8C4
:102A500088B920684169806900903A464946204615
:102A600000F0F2F848B1206C042804D12068016815
:102A700041F4007101600120DEE7F5B2B8F1010F09
:102A800009D02168300A08613A464946204600F0DC
:102A9000DBF80028E7D1206805610020CCE70000C2
:102AA0000200010070B516460D4604461EE02046A1
:102AB000FFF78DFF08B1012070BD681C16D0FFF72D
:102AC00071F9801BA84200D885B920684069C043CD
:102AD00040070BD5002044F8300F20216173A0730C
:102AE000216941F0200121612073E4E720684069F9
:102AF000C0434007DBD4002070BD00002DE9F04743
:102B0000984617460D460446C1F30746DDF8209067
:102B10002AE000BFB8F1FF3F26D0FFF743F9A0EB52
:102B20000901414502D8B8F1000F1DD12068012EDE
:102B300016D0806925EA00000004000C12D00020A5
:102B4000B84211D1002044F8300F20216173A073E6
:102B5000216941F02001216120730120BDE8F08747
:102B60004069E7E70120EBE72068012E0AD0806981
:102B700025EA00000004000C06D00020B842C9D0AD
:102B80000020EBE74069F3E70120F7E72DE9F04784
:102B9000984616460D4604464FF000094FF0200AAD
:102BA000C1F3074723E020684069C043400515D4BE
:102BB0002068016841F40071016021686FF4806051
:102BC0004861C4F8309084F83DA084F83E90216CB0
:102BD00041F00401216484F83C9021E0701C06D08F
:102BE000FFF7E0F8A0EB0800B04203D816B1012FC0
:102BF0001FD021E02068012F15D0806925EA000050
:102C00000004000C18D000BF44F8309F84F80DA0D9
:102C100084F80E90216941F02001216184F80C9024
:102C20000120BDE8F087406925EA00000004000C9F
:102C3000EAD12068406901E02068806925EA000047
:102C40000004000CAFD1ECE770B516460D46044603
:102C50001EE02046FFF7BBFE08B1012070BD681CD6
:102C600016D0FFF79FF8801BA84200D885B92068CE
:102C70004069C04300060BD5002044F8300F2021E6
:102C80006173A073216941F0200121612073E4E7A1
:102C900020684069C0430006DBD4002070BD0000FE
:102CA00070B58AB018216846FDF758FB00241E480D
:102CB000069407941B4908940160891581600125D9
:102CC00005730475022606614FF460214460C161FA
:102CD000FEF7EAFC08B1FEF7C7FB1448CDE9000493
:102CE000039404948DF8084069460F48FEF7C0FB32
:102CF00008B1FEF7B9FB07200694CDE9075006A9F5
:102D00000948FEF7E1FB08B1FEF7AEFBCDE9065638
:102D100006A90548FEF7D8FB002801D0FEF7A4FB62
:102D20000AB070BD0024014044040020000280006D
:102D3000094808B5416941F001014161406900223B
:102D400000F00100009002210B20FFF721FABDE8FE
:102D500008400B20FFF70EBA001002402DE9F041A9
:102D600086B000242448009401940294039481695D
:102D700041F010018161816901F0100104918169C4
:102D800041F020018161816901F020010491816994
:102D900041F004018161816901F0040104918169BC
:102DA00041F0080181618069144F00F008004FF480
:102DB00000550490002229463846FEF7EDFFDFF863
:102DC00040806E11002231464046FEF7E5FF009537
:102DD0000125CDE901540224694638460394FEF7E3
:102DE000EBFE0096CDE90154694640460394FEF798
:102DF000E3FE06B0BDE8F081001002400010014083
:102E0000000801400D4810B50B4901600C494160B4
:102E100000214FF480428160C0E903124161816169
:102E2000C1610162FEF7C4FF002803D0BDE8104075
:102E3000FEF71ABB10BD000000540040B80400208B
:102E4000A086010010B592B000240F941C2108A8A0
:102E50001094FDF783FA20216846FDF77FFA1F489A
:102E60001D4901604721C0E9011440F2E731C0E982
:102E7000031444618461FFF767FD08B1FEF7F4FABB
:102E80000F940FA915481094FFF7C4FC08B1FEF782
:102E9000EBFA6020CDE908040A940B940C940D948D
:102EA000002208A90D480E94FFF7E8FC08B1FEF7D0
:102EB000DBFA00944FF40050CDE9044002940194F1
:102EC0000394694605480794FFF77AFC002801D06F
:102ED000FEF7CAFA12B010BD002C01400C0500200C
:102EE000FEE7FEE710B500F0FFFABDE81040002055
:102EF00000F0EEBA2DE9F04F8DB091460A46DDE9BB
:102F000017A60746984643491046DDF858B000F02A
:102F100097FD0190002000F0DBFA0021084600F048
:102F200051FB01243C4D00940EB13CA000E040A0B8
:102F300095E80E0000F0EAFB384600F01DFC06465E
:102F40000F46019800F018FC8DE8C3003BA2202139
:102F500004A8FDF745F90C21002000F033FB009494
:102F600095E80E0004A800F0D1FB484600F004FCF0
:102F7000CDE9000136A2202104A8FDF731F918217E
:102F8000002000F01FFB009495E80E0004A800F05C
:102F9000BDFB404600F0F0FBCDE900012FA220214F
:102FA00004A8FDF71DF92421002000F00BFB00947C
:102FB00095E80E0004A800F0A9FB584600F0DCFBE1
:102FC000CDE9000128A2202104A8FDF709F930214C
:102FD000002000F0F7FA009495E80E0004A800F035
:102FE00095FB504600F0C8FBCDE9000121A220214D
:102FF00004A8FDF7F5F83821002000F0E3FA00946A
:1030000095E80E0004A800F081FB00F0EDFA0DB089
:10301000BDE8F08F00007A44CC4200084641494C9C
:103020002053414645204143544956450000000085
:10303000424D53205354415455530000492F563AA2
:1030400025302E31666D412C2025302E32665600FB
:10305000503A25302E32665700000000453A2530A0
:103060002E33665768000000513A25302E336641F2
:1030700068000000536F433A25302E306625250046
:1030800070477047FFF71EB830B593B028216846E7
:10309000FDF764F914210AA8FDF760F90025012065
:1030A0000F9510951195010412958DE82300049059
:1030B0004FF4E010CDE90810022407946846FFF7AA
:1030C000DBF908B172B6FEE70AA90F2081E83100EA
:1030D0004FF48060CDE90D0502210AA8FFF700F941
:1030E00008B172B6FEE74FF4004011900F940FA89C
:1030F000FFF780F8002801D072B6FEE713B030BDAC
:1031000070470000F0B50268194B1A4C1A4D4FF089
:103110008047984205D0B84203D0A04201D0A842CF
:1031200003D122F070064A683243984205D0B84273
:1031300003D0A04201D0A84203D122F44074CA684F
:1031400022434C6922F08002224302608A68C262F4
:103150000A688262984201D10969016301214161D3
:103160000169C90703D0016921F001010161F0BDC6
:10317000002C0140000400400008004030B5036A04
:10318000026A22F0010202624268846924F0730537
:103190000C682C4323F002058B682B430A4DA84290
:1031A0000BD123F00805CB6822F440722B434D6904
:1031B00023F0040315438A692A4342608461496805
:1031C0004163036230BD0000002C014030B5026A4B
:1031D000036A23F010030362436884690D6824F4D2
:1031E000E64444EA05248D6822F0200242EA0512F2
:1031F0000B4DA8420ED1CD6822F0800242EA0512A2
:103200004D6923F4406343EA85038D6922F040024F
:1032100043EA85034360846149688163026230BD8B
:10322000002C014030B5036A026A22F48072026207
:103230004268C46923F4007324F073050C682C43BE
:103240008D6843EA05230C4DA8420ED1CD6823F4C6
:10325000006343EA05234D6922F4405242EA051215
:103260008D6923F4806342EA05124260C4614968B3
:10327000C163036230BD0000002C014030B5046A18
:10328000026A22F4805202624268C3690D6823F424
:10329000E64343EA05238D6824F4005444EA0534E8
:1032A000064DA84204D14D6922F4804242EA8512BB
:1032B0004260C36149680164046230BD002C014072
:1032C000FEE7490050EAC12018BF04204A0D18BF8C
:1032D00040F0010040F2FF72B2EB515F08BF40F0D6
:1032E0000200012808BF052070470907090E0028C1
:1032F00004DB00F1E02080F80014704700F00F00BC
:1033000000F1E02080F8141D704730380A2801D2FF
:1033100001207047002070470EB5FEF7DBFEFFF777
:10332000B3FEFFF71BFDFFF703FDFFF7B9FCFFF747
:1033300089FDFFF767FD02224D494E48FEF794FADA
:10334000012211024C48FEF727FDFFF7CBFDFEF7E7
:1033500029FD474CDFF82481103CA062444F788857
:1033600000F05AFBDFF81891494600F093FADFF8B5
:1033700014A1514600F064FB05466061D4E90001E8
:1033800000F05EFB0146284600F084FAE06140450B
:1033900005DD00224FF480713748FEF7FDFCFEF793
:1033A00001FD0546A06A281A00F036FB364900F0F8
:1033B00071FA0646A562388800F02EFB494600F0F7
:1033C00069FA514600F03CFB3049606100F038FB7F
:1033D000A061E16981468A4600F032FB0546206221
:1033E000B6F5000F01DAA06813E02949304600F075
:1033F00051FA0646294600F023FB616A00F0E8F91D
:1034000060623046514600F01BFBA16800F0E0F915
:10341000A060204FB84201D30020A0601E4983461F
:1034200000F038FA4FF07E5100F0D6FB1B4E3146CB
:1034300000F006FBE060B84202D30020E06002E04A
:10344000B04200DDE660C24501DD012000E0002061
:10345000E268CDF800B0CDE901202A465146484641
:10346000636AFFF747FDC820FEF794FB76E700008C
:103470001800002044040020000801409A99193FD8
:1034800000F07F453333534000007A440000404051
:103490000000614500008080CDCC0C400000C84297
:1034A00030B580280ED240290CD2012401F0070546
:1034B000AC40064BC90800EBC110012A195C02D0D0
:1034C000A143195430BD2143FBE700004400002014
:1034D00028B1FF224FF480610248FCF737BF002279
:1034E000F8E700004400002010B56420FEF752FB0E
:1034F000002000F06DF8202000F0E6F8002000F039
:10350000E3F8B02000F0E0F8C82000F0DDF800207B
:1035100000F0DAF8102000F0D7F8402000F0D4F8DE
:10352000FF2000F045F8A12000F0CEF8A62000F022
:10353000CBF8A82000F0C8F83F2000F0C5F8A42080
:1035400000F0C2F8D32000F0BFF8002000F0BCF873
:10355000D52000F0B9F8F02000F0B6F8D92000F03E
:10356000B3F8222000F0B0F8DA2000F0ADF8122015
:1035700000F0AAF8DB2000F0A7F8202000F0A4F863
:103580008D2000F0A1F8142000F09EF8012000F03A
:103590001FF80020FFF79CFF00F026F803480021E9
:1035A000018041800121017110BD00000000002058
:1035B00010B50446812000F087F82046BDE8104091
:1035C00000F082B8014A108051807047000000204E
:1035D000044910B1AF20012201E0AE2000224A715F
:1035E00000F072B80000002070B50C4D002400BF40
:1035F00004F1B000C0B200F067F8002000F064F8F9
:10360000102000F061F805EBC410802100F06EF886
:10361000641CE4B2082CEBD370BD00004400002011
:103620002DE9FF4F93460098A0F12008B8F15F0FF5
:1036300010D213B113F8086000E0CEB2214802881E
:103640003244802A06D882464088C1F3072738448E
:10365000402803D9002004B0BDE8F08F002525E004
:1036600008FB075100243BF811901CE009FA04F014
:10367000000409D59AF802109AF800002944204461
:10368000C9B2C0B20D9A0BE00D98C0B15FF0000254
:103690009AF802109AF8000029442044C9B2C0B236
:1036A000FFF7FEFE641CB442E0D36D1CAF42D7D8D6
:1036B000BAF800103144AAF800100098CBE70122B4
:1036C000E6E700000000002001B584B001214FF0C2
:1036D000FF3204A88DE807000B460022782102483B
:1036E000FEF72AFC05B000BDB80400200EB54FF06F
:1036F000FF3289B28DE80700012340227821024879
:10370000FEF71AFC0EBD0000B80400202DE9F841B8
:103710000E46174698460446079D0CE043463A4637
:1037200031460095FFF77CFF2178884202D0C8B26D
:10373000BDE8F881641C20780028EFD1C0B2F7E71B
:1037400010B500290AD00878002807D00548784429
:10375000FDF7B4F9002801D0002010BD02487844DC
:1037600010BD00007A0C0000720C00000808A0F5E3
:1037700000114FEA3101704743004FEAD30C4FEA82
:103780003C0C43401FBF40070CF1605113F0FE4F4B
:1037900070471CF0006F03D100200CF0004170470F
:1037A0000CF0004343EA507010B540EACC0000F042
:1037B000C8F900BF000000924FEA0001FFF7D6BF32
:1037C0004FF000414FF00000A1F5002170470000CC
:1037D00090EA010F48BF81F0004100F10E82421AC9
:1037E0003CBF801A89184FEAD0524FF07F4C1CEA38
:1037F000410FA2EBD15318BF9CEA026F00F03B804F
:103800004FF0004C4CEA00204CEA012121FA03FC65
:1038100010EB0C0C1ED202F1FF325FEA1C2040EBD1
:10382000C25038BF70471CF07F0F4FEA400C18BFE2
:10383000BCF17F4F38BF7047C3F12003994008BFE8
:1038400020F00100BCF17F4F38BF7047A0F1C040AD
:1038500000F0BDB94FEA3C00000A40EBC25028BF5F
:103860001CF0FF0F4FEA400CE6D018BFBCF17F4FB1
:1038700038BF7047EAE79CEA026F05D010EA5C0F98
:1038800008BF00F00040704710B500F05AF900BFC3
:1038900064FBBE3E4FF47F0C1CEAD0121EBF1CEA34
:1038A000D11392EA0C0F93EA0C0F00F0858090EA96
:1038B000010F48BF42F4807240F4000C41F4000054
:1038C0002CF07F4120F07F4000B58142A2EB030243
:1038D0000FF2081CACEB504EC0F100009EF800E067
:1038E0004FEA4E0E00FB0EFC38BF49004FEA2C1C7D
:1038F00002F5FA020CFB0EF34FEACE1E4FEA112C32
:103900004FEAC1210EEB635E42EB22420EFB0CFC40
:103910004FEA1C5300FB03114FEA112C4FEA01310F
:103920000EFB0CFC4FEADC4C00FB0C11C14228BF23
:1039300009184CEB03335DF804EB10EB410143EB4A
:10394000C250B2F57C0F38BF704729D512F0F00F86
:103950001CBF00F1C04000F000407047008182832E
:103960008485868788898B8C8D8E8F91929395968E
:1039700097999A9C9D9FA0A2A3A5A7A8AAACAEB018
:10398000B2B3B5B7B9BCBEC0C2C5C7C9CCCED1D41D
:10399000D7D9DCDFE2E6E9ECF0F3F7FAFE0000004D
:1039A0004FEA400C0CF1807CBCF17E4F28BF704781
:1039B000B0F1C04000F00BB990EA010F0CEAD1134E
:1039C00048BF42F48072624538BF634507D213F4A2
:1039D0007F0F16D080EA010000F00040704710B55C
:1039E00000F0AFF8097EFC3E00F005B880EA010067
:1039F00000F00040704780EA010000F0004000F055
:103A0000E6B812F47F0F04BF0248704780EA010055
:103A100000F0DDB80000C07FB0FA80F310FA03F2C6
:103A2000C3F19D030AD0D90501EB1220530638BF1C
:103A3000704700F1010008BF20F00100704700004E
:103A40004FF47F0C1CEAD0121EBF1CEAD11392EA7D
:103A50000C0F93EA0C0F00F0478090EA010F48BF6B
:103A600042F480724FF0004C4CEA00204CEA0121F5
:103A700002EB0302A0FB0113A2F50002002918BF0C
:103A800043F001035B0028BF4FEA330342EB2242BD
:103A90005FEA132C4CEBC2502EBFBCEB436FB2F568
:103AA0007C0F70474FEA036CBCF1004F08BF20F059
:103AB0000100B2F57C0F38BF70470BD582F0FF02D2
:103AC00012F5803FC8BF704700F1C040D8BF00F07A
:103AD0000040704700F5000C5FEA4C0C48BF70478F
:103AE000B0F1C04000F073B890EA010F0CEAD113B6
:103AF00048BF42F48072624538BF634504D280EA11
:103B0000010000F00040704710B500F01AF800BF47
:103B10008900013E00F007B800F009B85FEA410CE7
:103B20005FEA1C6C08D080EA010000F050B85FEA40
:103B3000400C5FEA1C6CF6D14FF00040A0F580000D
:103B400070470EF1020E2EF0030E5EF8044B244275
:103B500004D44FEA4102B2F17F4F11D84FEA40033B
:103B6000B3F17F4F0CD80ED14FEAD07CB2F17F4F2A
:103B70000CEB4C0C0CF1020C08BF4CEBD17C04E0BC
:103B80004FF0080C01E04FEAD17C0CEB4C0324FA17
:103B900003F404F00704B4F1040C06D20EEB840C19
:103BA000BDE810404CF0010C6047DFE80CF007085E
:103BB00002024FF00040A0F5800010BD0846420010
:103BC00018BFD2F1807288BF00F0004010BDFF2105
:103BD00041EAD050C005704780F0004090EA010FE4
:103BE0007FF5FDAD81F0004100F007B890EA010FCC
:103BF00048BF81F000413FF5F2AD421A04D882F08F
:103C00000042A0EB020011444FEAD0524FF07F4C2B
:103C10001CEA410FA2EBD15318BF9CEA026F4AD0B5
:103C20004FF0004C4CEA00204CEA012121FA03FC41
:103C3000B0EB0C0C0FD412F0FE0F36D05FEA4C0044
:103C40001DD5001240EBC25038BF70471CF03F0F2B
:103C500018BF70470BE0A2F101025FEA1C2040EBA5
:103C6000C25038BF70471CF07F0F18BF7047C3F1B8
:103C70002003994014BF401E20F0010070478008C7
:103C80004FEA122308BF7047B0FA80FCA2EB0C0287
:103C9000CCF1280C60FA0CF093EA122F04BF00EB71
:103CA000C25070474FEAC3707047130A5FEADC10D6
:103CB00008BF7047F6E79CEA026F04D010EA5C0F79
:103CC00008BF0020704710B5FFF73BFF40DFF63E0E
:103CD00081F000407047FCF744BC00000000000089
:103CE0000000000000000000000000200020002074
:103CF0000020002000000020000000500050005074
:103D0000000000000000000000000050005000F81B
:103D1000005000F80050005000000020007800A083
:103D20000070002800F00020000000C000C8001053
:103D300000200040009800180000004000A000A0F3
:103D4000004000A800900068000000300030002013
:103D500000400000000000000000001000200040B3
:103D60000040004000200010000000400020001033
:103D700000100010002000400000002000A800708B
:103D800000F8007000A800200000000000200020C3
:103D900000F80020002000000000000000000000EB
:103DA0000000003000300020000000000000000093
:103DB00000F800000000000000000000000000000B
:103DC000000000000030003000000000000800107B
:103DD0000020004000800000000000700088009873
:103DE00000A800C8008800700000002000600020CB
:103DF00000200020002000700000007000880008F3
:103E000000700080008000F8000000F8000800103A
:103E100000300008008800700000001000300050E2
:103E2000009000F800100010000000F8008000F082
:103E30000008000800880070000000380040008082
:103E400000F0008800880070000000F800080008FA
:103E500000100020004000800000007000880088F2
:103E600000700088008800700000007000880088E2
:103E700000780008001000E00000000000000020B2
:103E800000000020000000000000000000000020F2
:103E9000000000200020004000000008001000206A
:103EA000004000200010000800000000000000F8A2
:103EB000000000F80000000000000040002000109A
:103EC000000800100020004000000070008800087A
:103ED000003000200000002000000070008800A8D2
:103EE00000B800B00080007800000020005000887A
:103EF000008800F800880088000000F00088008832
:103F000000F00088008800F0000000700088008049
:103F10000080008000880070000000F000880088A9
:103F200000880088008800F0000000F80080008011
:103F300000F00080008000F8000000F800800080A1
:103F400000F0008000800080000000780088008081
:103F500000800098008800780000008800880088B1
:103F600000F8008800880088000000700020002011
:103F70000020002000200070000000380010001019
:103F8000001000100090006000000088009000A069
:103F900000C000A000900088000000800080008029
:103FA00000800080008000F80000008800D800A891
:103FB00000A800A80088008800000088008800C8C9
:103FC00000A8009800880088000000700088008821
:103FD0000088008800880070000000F000880088D9
:103FE00000F00080008000800000007000880088E1
:103FF000008800A800900068000000F00088008899
:1040000000F000A000900088000000700088008090
:104010000070000800880070000000F800A8002070
:104020000020002000200020000000880088008878
:1040300000880088008800700000008800880088E0
:104040000088008800500020000000880088008858
:1040500000A800A800A800500000008800880050B8
:104060000020005000880088000000880088005070
:104070000020002000200020000000F800080010B0
:1040800000700040008000F8000000780040004010
:104090000040004000400078000000000080004028
:1040A0000020001000080000000000780008000850
:1040B0000008000800080078000000200050008878
:1040C00000000000000000000000000000000000F0
:1040D00000000000000000F8000000600060002008
:1040E0000010000000000000000000000000006060
:1040F000001000700090007800000080008000B088
:1041000000C8008800C800B0000000000000007077
:104110000088008000880070000000080008006827
:1041200000980088009800680000000000000070FF
:10413000008800F8008000700000001000280020B7
:10414000007000200020002000000000000000702F
:10415000009800980068000800000080008000B00F
:1041600000C800880088008800000020000000606F
:10417000002000200020007000000010000000104F
:10418000001000100090006000000080008000908F
:1041900000A000C000A000900000006000200020EF
:1041A000002000200020007000000000000000D06F
:1041B00000A800A800A800A800000000000000B0AF
:1041C00000C800880088008800000000000000701F
:1041D000008800880088007000000000000000B027
:1041E00000C800C800B000800000000000000068A7
:1041F000009800980068000800000000000000B06F
:1042000000C80080008000800000000000000078EE
:1042100000800070000800F000000020002000F87E
:10422000002000200028001000000000000000888E
:1042300000880088009800680000000000000088E6
:104240000088008800500020000000000000008866
:10425000008800A800A800500000000000000088AE
:10426000005000200050008800000000000000887E
:10427000008800780008008800000000000000F8B6
:1042800000100020004000F8000000100020002076
:10429000004000200020001000000020002000202E
:1042A000000000200020002000000040002000202E
:1042B00000100020002000400000004000A8001076
:1042C00000000000000000000000000006080000E0
:1042D000DA3C0008000000000102020304050607A2
:1042E00008090A0B0C0D0E0F101000000000000052
:1042F0000000010203040607080900000000010293
:104300000304040000080000000000000002000197
:104310000000100002400000000000A000000000AB
:1043200005400000000000C8000000000C40000034
:104330000000409C00000000194000000020BCBEAE
:104340000000000034400000BFC91B8E00000004C4
:10435000B5400000504BCFD06607E2CF010000000F
:104360006C4100003E8251AADFEEA734010000003C
:10437000D9420000DCB5A0E23A301F97FFFFFFFFF3
:10438000B4450000FD25A0C8E9A3C14FFFFFFFFF12
:10439000FF3F00000000008000000000FF3F000021
:1043A0000000008000000000E4430008000000203E
:1043B00044000000280100082844000844000020B0
:1043C000740B0000440100081C00000043000000C2
:1043D000F8FFFFFF0C0000000E0000000F000000BF
:1043E0002E00000000000000000000000000484215
:1043F0009A99193E000000000000C8420000000029
:1044000000000000000000000000000000000000AC
:10441000000000000000000001000000100000008B
:084420000000000000127A0008
:04000005080000ED02
:00000001FF
